{
  "contractName": "RecurringPayments",
  "abi": [
    {
      "inputs": [
        {
          "internalType": "address payable",
          "name": "_recipient",
          "type": "address"
        },
        {
          "internalType": "uint256",
          "name": "_interval",
          "type": "uint256"
        },
        {
          "internalType": "uint256",
          "name": "_paymentAmount",
          "type": "uint256"
        },
        {
          "internalType": "uint256",
          "name": "_numPayments",
          "type": "uint256"
        }
      ],
      "stateMutability": "payable",
      "type": "constructor",
      "payable": true
    },
    {
      "inputs": [],
      "name": "interval",
      "outputs": [
        {
          "internalType": "uint256",
          "name": "",
          "type": "uint256"
        }
      ],
      "stateMutability": "view",
      "type": "function",
      "constant": true
    },
    {
      "inputs": [],
      "name": "numPayments",
      "outputs": [
        {
          "internalType": "uint256",
          "name": "",
          "type": "uint256"
        }
      ],
      "stateMutability": "view",
      "type": "function",
      "constant": true
    },
    {
      "inputs": [],
      "name": "owner",
      "outputs": [
        {
          "internalType": "address",
          "name": "",
          "type": "address"
        }
      ],
      "stateMutability": "view",
      "type": "function",
      "constant": true
    },
    {
      "inputs": [],
      "name": "paymentAmount",
      "outputs": [
        {
          "internalType": "uint256",
          "name": "",
          "type": "uint256"
        }
      ],
      "stateMutability": "view",
      "type": "function",
      "constant": true
    },
    {
      "inputs": [],
      "name": "paymentsMade",
      "outputs": [
        {
          "internalType": "uint256",
          "name": "",
          "type": "uint256"
        }
      ],
      "stateMutability": "view",
      "type": "function",
      "constant": true
    },
    {
      "inputs": [],
      "name": "recipient",
      "outputs": [
        {
          "internalType": "address payable",
          "name": "",
          "type": "address"
        }
      ],
      "stateMutability": "view",
      "type": "function",
      "constant": true
    },
    {
      "inputs": [],
      "name": "startTime",
      "outputs": [
        {
          "internalType": "uint256",
          "name": "",
          "type": "uint256"
        }
      ],
      "stateMutability": "view",
      "type": "function",
      "constant": true
    },
    {
      "stateMutability": "payable",
      "type": "receive",
      "payable": true
    },
    {
      "inputs": [],
      "name": "makePayment",
      "outputs": [],
      "stateMutability": "nonpayable",
      "type": "function"
    },
    {
      "inputs": [],
      "name": "getBalance",
      "outputs": [
        {
          "internalType": "uint256",
          "name": "",
          "type": "uint256"
        }
      ],
      "stateMutability": "view",
      "type": "function",
      "constant": true
    },
    {
      "inputs": [],
      "name": "withdraw",
      "outputs": [],
      "stateMutability": "nonpayable",
      "type": "function"
    }
  ],
  "bytecode": "0x608060405260405162000f4c38038062000f4c83398181016040528101906200002991906200029e565b600073ffffffffffffffffffffffffffffffffffffffff168473ffffffffffffffffffffffffffffffffffffffff1614156200009c576040517f08c379a00000000000000000000000000000000000000000000000000000000081526004016200009390620004e4565b60405180910390fd5b60008311620000e2576040517f08c379a0000000000000000000000000000000000000000000000000000000008152600401620000d99062000506565b60405180910390fd5b6000821162000128576040517f08c379a00000000000000000000000000000000000000000000000000000000081526004016200011f90620004a0565b60405180910390fd5b600081116200016e576040517f08c379a0000000000000000000000000000000000000000000000000000000008152600401620001659062000528565b60405180910390fd5b80826200017c91906200055b565b341015620001c1576040517f08c379a0000000000000000000000000000000000000000000000000000000008152600401620001b890620004c2565b60405180910390fd5b336000806101000a81548173ffffffffffffffffffffffffffffffffffffffff021916908373ffffffffffffffffffffffffffffffffffffffff16021790555083600160006101000a81548173ffffffffffffffffffffffffffffffffffffffff021916908373ffffffffffffffffffffffffffffffffffffffff160217905550826002819055508160038190555080600581905550426004819055506000600681905550505050506200065d565b600081519050620002818162000629565b92915050565b600081519050620002988162000643565b92915050565b60008060008060808587031215620002b557600080fd5b6000620002c58782880162000270565b9450506020620002d88782880162000287565b9350506040620002eb8782880162000287565b9250506060620002fe8782880162000287565b91505092959194509250565b6000620003196025836200054a565b91507f5061796d656e7420616d6f756e74206d7573742062652067726561746572207460008301527f68616e20300000000000000000000000000000000000000000000000000000006020830152604082019050919050565b6000620003816012836200054a565b91507f496e73756666696369656e742066756e647300000000000000000000000000006000830152602082019050919050565b6000620003c36019836200054a565b91507f496e76616c696420726563697069656e742061646472657373000000000000006000830152602082019050919050565b600062000405601f836200054a565b91507f496e74657276616c206d7573742062652067726561746572207468616e2030006000830152602082019050919050565b6000620004476029836200054a565b91507f4e756d626572206f66207061796d656e7473206d75737420626520677265617460008301527f6572207468616e203000000000000000000000000000000000000000000000006020830152604082019050919050565b60006020820190508181036000830152620004bb816200030a565b9050919050565b60006020820190508181036000830152620004dd8162000372565b9050919050565b60006020820190508181036000830152620004ff81620003b4565b9050919050565b600060208201905081810360008301526200052181620003f6565b9050919050565b60006020820190508181036000830152620005438162000438565b9050919050565b600082825260208201905092915050565b60006200056882620005f0565b91506200057583620005f0565b9250817fffffffffffffffffffffffffffffffffffffffffffffffffffffffffffffffff0483118215151615620005b157620005b0620005fa565b5b828202905092915050565b6000620005c982620005d0565b9050919050565b600073ffffffffffffffffffffffffffffffffffffffff82169050919050565b6000819050919050565b7f4e487b7100000000000000000000000000000000000000000000000000000000600052601160045260246000fd5b6200063481620005bc565b81146200064057600080fd5b50565b6200064e81620005f0565b81146200065a57600080fd5b50565b6108df806200066d6000396000f3fe6080604052600436106100955760003560e01c806378e979251161005957806378e97925146101645780638da5cb5b1461018f578063947a36fb146101ba578063c35905c6146101e5578063d8d79700146102105761009c565b806312065fe0146100a15780632279fa4c146100cc5780633ccfd60b146100f75780634ff59cf81461010e57806366d003ac146101395761009c565b3661009c57005b600080fd5b3480156100ad57600080fd5b506100b6610227565b6040516100c39190610707565b60405180910390f35b3480156100d857600080fd5b506100e161022f565b6040516100ee9190610707565b60405180910390f35b34801561010357600080fd5b5061010c610235565b005b34801561011a57600080fd5b50610123610372565b6040516101309190610707565b60405180910390f35b34801561014557600080fd5b5061014e610378565b60405161015b919061066c565b60405180910390f35b34801561017057600080fd5b5061017961039e565b6040516101869190610707565b60405180910390f35b34801561019b57600080fd5b506101a46103a4565b6040516101b19190610651565b60405180910390f35b3480156101c657600080fd5b506101cf6103c8565b6040516101dc9190610707565b60405180910390f35b3480156101f157600080fd5b506101fa6103ce565b6040516102079190610707565b60405180910390f35b34801561021c57600080fd5b506102256103d4565b005b600047905090565b60055481565b60008054906101000a900473ffffffffffffffffffffffffffffffffffffffff1673ffffffffffffffffffffffffffffffffffffffff163373ffffffffffffffffffffffffffffffffffffffff16146102c3576040517f08c379a00000000000000000000000000000000000000000000000000000000081526004016102ba90610687565b60405180910390fd5b60055460065414610309576040517f08c379a0000000000000000000000000000000000000000000000000000000008152600401610300906106e7565b60405180910390fd5b60008054906101000a900473ffffffffffffffffffffffffffffffffffffffff1673ffffffffffffffffffffffffffffffffffffffff166108fc479081150290604051600060405180830381858888f1935050505015801561036f573d6000803e3d6000fd5b50565b60065481565b600160009054906101000a900473ffffffffffffffffffffffffffffffffffffffff1681565b60045481565b60008054906101000a900473ffffffffffffffffffffffffffffffffffffffff1681565b60025481565b60035481565b6002546006546103e49190610789565b6004546103f19190610733565b421015610433576040517f08c379a000000000000000000000000000000000000000000000000000000000815260040161042a906106a7565b60405180910390fd5b60055460065410610479576040517f08c379a0000000000000000000000000000000000000000000000000000000008152600401610470906106c7565b60405180910390fd5b6006600081548092919061048c90610831565b9190505550600160009054906101000a900473ffffffffffffffffffffffffffffffffffffffff1673ffffffffffffffffffffffffffffffffffffffff166108fc6003549081150290604051600060405180830381858888f193505050501580156104fb573d6000803e3d6000fd5b50565b610507816107f5565b82525050565b610516816107e3565b82525050565b6000610529602183610722565b91507f4f6e6c79206f776e65722063616e2063616c6c20746869732066756e6374696f60008301527f6e000000000000000000000000000000000000000000000000000000000000006020830152604082019050919050565b600061058f601c83610722565b91507f5061796d656e7420696e74657276616c206e6f742072656163686564000000006000830152602082019050919050565b60006105cf601683610722565b91507f416c6c207061796d656e747320636f6d706c65746564000000000000000000006000830152602082019050919050565b600061060f601a83610722565b91507f5061796d656e7473206e6f7420636f6d706c65746564207965740000000000006000830152602082019050919050565b61064b81610827565b82525050565b6000602082019050610666600083018461050d565b92915050565b600060208201905061068160008301846104fe565b92915050565b600060208201905081810360008301526106a08161051c565b9050919050565b600060208201905081810360008301526106c081610582565b9050919050565b600060208201905081810360008301526106e0816105c2565b9050919050565b6000602082019050818103600083015261070081610602565b9050919050565b600060208201905061071c6000830184610642565b92915050565b600082825260208201905092915050565b600061073e82610827565b915061074983610827565b9250827fffffffffffffffffffffffffffffffffffffffffffffffffffffffffffffffff0382111561077e5761077d61087a565b5b828201905092915050565b600061079482610827565b915061079f83610827565b9250817fffffffffffffffffffffffffffffffffffffffffffffffffffffffffffffffff04831182151516156107d8576107d761087a565b5b828202905092915050565b60006107ee82610807565b9050919050565b600061080082610807565b9050919050565b600073ffffffffffffffffffffffffffffffffffffffff82169050919050565b6000819050919050565b600061083c82610827565b91507fffffffffffffffffffffffffffffffffffffffffffffffffffffffffffffffff82141561086f5761086e61087a565b5b600182019050919050565b7f4e487b7100000000000000000000000000000000000000000000000000000000600052601160045260246000fdfea2646970667358221220e7d28c3c59ed286d6615eabbee5c1bd99f0139ae69820bea2be3dd1c83a8668064736f6c63430008000033",
  "immutableReferences": {},
  "source": "// SPDX-License-Identifier: MIT\r\npragma solidity ^0.8.0;\r\n\r\ncontract RecurringPayments {\r\n    address public owner;                 // Owner of the contract\r\n    address payable public recipient;    // Address to receive payments\r\n    uint256 public interval;             // Time interval between payments (in seconds)\r\n    uint256 public paymentAmount;        // Amount to send per payment\r\n    uint256 public startTime;            // Time when the schedule starts\r\n    uint256 public numPayments;          // Total number of payments\r\n    uint256 public paymentsMade;         // Counter for payments made\r\n\r\n    constructor(\r\n        address payable _recipient,\r\n        uint256 _interval,\r\n        uint256 _paymentAmount,\r\n        uint256 _numPayments\r\n    ) payable {\r\n        require(_recipient != address(0), \"Invalid recipient address\");\r\n        require(_interval > 0, \"Interval must be greater than 0\");\r\n        require(_paymentAmount > 0, \"Payment amount must be greater than 0\");\r\n        require(_numPayments > 0, \"Number of payments must be greater than 0\");\r\n        require(msg.value >= _paymentAmount * _numPayments, \"Insufficient funds\");\r\n\r\n        owner = msg.sender;               // Set contract owner\r\n        recipient = _recipient;           // Payment recipient\r\n        interval = _interval;             // Interval between payments\r\n        paymentAmount = _paymentAmount;   // Payment amount\r\n        numPayments = _numPayments;       // Total number of payments\r\n        startTime = block.timestamp;      // Start time of payments\r\n        paymentsMade = 0;                 // Initialize payments made\r\n    }\r\n\r\n    // Ensure only owner can call certain functions\r\n    modifier onlyOwner() {\r\n        require(msg.sender == owner, \"Only owner can call this function\");\r\n        _;\r\n    }\r\n\r\n    // Function to make payments\r\n    function makePayment() public {\r\n        require(block.timestamp >= startTime + (paymentsMade * interval), \"Payment interval not reached\");\r\n        require(paymentsMade < numPayments, \"All payments completed\");\r\n\r\n        paymentsMade++; // Increment payments made\r\n        recipient.transfer(paymentAmount); // Send payment\r\n    }\r\n\r\n    // Function to check contract balance\r\n    function getBalance() public view returns (uint256) {\r\n        return address(this).balance;\r\n    }\r\n\r\n    // Function to withdraw remaining funds (if any) after payments are complete\r\n    function withdraw() external onlyOwner {\r\n        require(paymentsMade == numPayments, \"Payments not completed yet\");\r\n        payable(owner).transfer(address(this).balance);\r\n    }\r\n\r\n    // Fallback function to receive Ether\r\n    receive() external payable {}\r\n}\r\n",
  "sourcePath": "C:\\Users\\user\\Documents\\projects\\blocklend\\blfrontend\\contracts\\RecurringPayments.sol",
  "compiler": {
    "name": "solc",
    "version": "0.8.0+commit.c7dfd78e.Emscripten.clang"
  },
  "schemaVersion": "3.4.16",
  "updatedAt": "2024-12-26T12:10:44.191Z",
  "networkType": "ethereum",
  "devdoc": {
    "kind": "dev",
    "methods": {},
    "version": 1
  },
  "userdoc": {
    "kind": "user",
    "methods": {},
    "version": 1
  }
}