{
    "contractName": "RepayLoan",
    "abi": [
        {
            "inputs": [
                {
                    "internalType": "address",
                    "name": "_borrower",
                    "type": "address"
                },
                {
                    "internalType": "uint256",
                    "name": "_loanAmount",
                    "type": "uint256"
                },
                {
                    "internalType": "uint256",
                    "name": "_installmentAmount",
                    "type": "uint256"
                },
                {
                    "internalType": "uint256",
                    "name": "_repaymentSchedule",
                    "type": "uint256"
                }
            ],
            "stateMutability": "nonpayable",
            "type": "constructor"
        },
        {
            "anonymous": false,
            "inputs": [
                {
                    "indexed": false,
                    "internalType": "address",
                    "name": "borrower",
                    "type": "address"
                },
                {
                    "indexed": false,
                    "internalType": "uint256",
                    "name": "totalAmountPaid",
                    "type": "uint256"
                }
            ],
            "name": "LoanPaidOff",
            "type": "event"
        },
        {
            "anonymous": false,
            "inputs": [
                {
                    "indexed": false,
                    "internalType": "address",
                    "name": "borrower",
                    "type": "address"
                },
                {
                    "indexed": false,
                    "internalType": "uint256",
                    "name": "amount",
                    "type": "uint256"
                },
                {
                    "indexed": false,
                    "internalType": "uint256",
                    "name": "totalPaid",
                    "type": "uint256"
                }
            ],
            "name": "RepaymentMade",
            "type": "event"
        },
        {
            "inputs": [],
            "name": "borrower",
            "outputs": [
                {
                    "internalType": "address",
                    "name": "",
                    "type": "address"
                }
            ],
            "stateMutability": "view",
            "type": "function"
        },
        {
            "inputs": [],
            "name": "installmentAmount",
            "outputs": [
                {
                    "internalType": "uint256",
                    "name": "",
                    "type": "uint256"
                }
            ],
            "stateMutability": "view",
            "type": "function"
        },
        {
            "inputs": [],
            "name": "lender",
            "outputs": [
                {
                    "internalType": "address",
                    "name": "",
                    "type": "address"
                }
            ],
            "stateMutability": "view",
            "type": "function"
        },
        {
            "inputs": [],
            "name": "loanAmount",
            "outputs": [
                {
                    "internalType": "uint256",
                    "name": "",
                    "type": "uint256"
                }
            ],
            "stateMutability": "view",
            "type": "function"
        },
        {
            "inputs": [],
            "name": "loanPaidOff",
            "outputs": [
                {
                    "internalType": "bool",
                    "name": "",
                    "type": "bool"
                }
            ],
            "stateMutability": "view",
            "type": "function"
        },
        {
            "inputs": [],
            "name": "repaymentSchedule",
            "outputs": [
                {
                    "internalType": "uint256",
                    "name": "",
                    "type": "uint256"
                }
            ],
            "stateMutability": "view",
            "type": "function"
        },
        {
            "inputs": [],
            "name": "startTime",
            "outputs": [
                {
                    "internalType": "uint256",
                    "name": "",
                    "type": "uint256"
                }
            ],
            "stateMutability": "view",
            "type": "function"
        },
        {
            "inputs": [],
            "name": "totalRepaymentsMade",
            "outputs": [
                {
                    "internalType": "uint256",
                    "name": "",
                    "type": "uint256"
                }
            ],
            "stateMutability": "view",
            "type": "function"
        },
        {
            "inputs": [],
            "name": "makeRepayment",
            "outputs": [],
            "stateMutability": "payable",
            "type": "function"
        },
        {
            "inputs": [],
            "name": "loanStatus",
            "outputs": [
                {
                    "internalType": "uint256",
                    "name": "remainingAmount",
                    "type": "uint256"
                },
                {
                    "internalType": "bool",
                    "name": "paidOff",
                    "type": "bool"
                }
            ],
            "stateMutability": "view",
            "type": "function"
        },
        {
            "inputs": [],
            "name": "nextPaymentTime",
            "outputs": [
                {
                    "internalType": "uint256",
                    "name": "",
                    "type": "uint256"
                }
            ],
            "stateMutability": "view",
            "type": "function"
        },
        {
            "inputs": [],
            "name": "withdraw",
            "outputs": [],
            "stateMutability": "nonpayable",
            "type": "function"
        }
    ],
    "bytecode": "0x60806040523480156200001157600080fd5b5060405162000e4738038062000e47833981810160405281019062000037919062000127565b336000806101000a81548173ffffffffffffffffffffffffffffffffffffffff021916908373ffffffffffffffffffffffffffffffffffffffff16021790555083600160006101000a81548173ffffffffffffffffffffffffffffffffffffffff021916908373ffffffffffffffffffffffffffffffffffffffff160217905550826002819055508160038190555080600581905550426006819055506000600760006101000a81548160ff0219169083151502179055505050505062000205565b6000815190506200010a81620001d1565b92915050565b6000815190506200012181620001eb565b92915050565b600080600080608085870312156200013e57600080fd5b60006200014e87828801620000f9565b9450506020620001618782880162000110565b9350506040620001748782880162000110565b9250506060620001878782880162000110565b91505092959194509250565b6000620001a082620001a7565b9050919050565b600073ffffffffffffffffffffffffffffffffffffffff82169050919050565b6000819050919050565b620001dc8162000193565b8114620001e857600080fd5b50565b620001f681620001c7565b81146200020257600080fd5b50565b610c3280620002156000396000f3fe6080604052600436106100a75760003560e01c806378e979251161006457806378e979251461017a5780637df1f1b9146101a5578063823c3d8b146101d05780638770998e146101fb5780639d585f7f14610226578063bcead63e14610251576100a7565b8063074ca966146100ac578063330aec3e146100d85780633ccfd60b146100e25780634de669ab146100f9578063738a2cf81461012457806377369fd11461014f575b600080fd5b3480156100b857600080fd5b506100c161027c565b6040516100cf929190610a07565b60405180910390f35b6100e06102a7565b005b3480156100ee57600080fd5b506100f76104c9565b005b34801561010557600080fd5b5061010e610605565b60405161011b91906109ec565b60405180910390f35b34801561013057600080fd5b5061013961060b565b60405161014691906109ec565b60405180910390f35b34801561015b57600080fd5b5061016461063c565b6040516101719190610931565b60405180910390f35b34801561018657600080fd5b5061018f61064f565b60405161019c91906109ec565b60405180910390f35b3480156101b157600080fd5b506101ba610655565b6040516101c791906108b6565b60405180910390f35b3480156101dc57600080fd5b506101e561067b565b6040516101f291906109ec565b60405180910390f35b34801561020757600080fd5b50610210610681565b60405161021d91906109ec565b60405180910390f35b34801561023257600080fd5b5061023b610687565b60405161024891906109ec565b60405180910390f35b34801561025d57600080fd5b5061026661068d565b60405161027391906108b6565b60405180910390f35b60008060045460025461028f9190610b22565b9150600760009054906101000a900460ff1690509091565b600160009054906101000a900473ffffffffffffffffffffffffffffffffffffffff1673ffffffffffffffffffffffffffffffffffffffff163373ffffffffffffffffffffffffffffffffffffffff1614610337576040517f08c379a000000000000000000000000000000000000000000000000000000000815260040161032e906109cc565b60405180910390fd5b600760009054906101000a900460ff1615610387576040517f08c379a000000000000000000000000000000000000000000000000000000000815260040161037e9061094c565b60405180910390fd5b60035434146103cb576040517f08c379a00000000000000000000000000000000000000000000000000000000081526004016103c2906109ac565b60405180910390fd5b34600460008282546103dd9190610a41565b925050819055507f440deebbe22ad80b832c322e7ec09f0cb5abfb12d52a21bedeb05c467fb7e91b600160009054906101000a900473ffffffffffffffffffffffffffffffffffffffff163460045460405161043b939291906108fa565b60405180910390a1600254600454106104c7576001600760006101000a81548160ff0219169083151502179055507f8b3d257c142facfb05f1a6516df26e844831951861a2f2805a32daffc6040735600160009054906101000a900473ffffffffffffffffffffffffffffffffffffffff166004546040516104be9291906108d1565b60405180910390a15b565b60008054906101000a900473ffffffffffffffffffffffffffffffffffffffff1673ffffffffffffffffffffffffffffffffffffffff163373ffffffffffffffffffffffffffffffffffffffff1614610557576040517f08c379a000000000000000000000000000000000000000000000000000000000815260040161054e9061096c565b60405180910390fd5b60006004541161059c576040517f08c379a00000000000000000000000000000000000000000000000000000000081526004016105939061098c565b60405180910390fd5b60008054906101000a900473ffffffffffffffffffffffffffffffffffffffff1673ffffffffffffffffffffffffffffffffffffffff166108fc479081150290604051600060405180830381858888f19350505050158015610602573d6000803e3d6000fd5b50565b60045481565b60006003546004546005546106209190610ac8565b61062a9190610a97565b6006546106379190610a41565b905090565b600760009054906101000a900460ff1681565b60065481565b600160009054906101000a900473ffffffffffffffffffffffffffffffffffffffff1681565b60055481565b60035481565b60025481565b60008054906101000a900473ffffffffffffffffffffffffffffffffffffffff1681565b6106ba81610b56565b82525050565b6106c981610b68565b82525050565b60006106dc602383610a30565b91507f546865206c6f616e2068617320616c7265616479206265656e2070616964206f60008301527f66662e00000000000000000000000000000000000000000000000000000000006020830152604082019050919050565b6000610742602383610a30565b91507f4f6e6c7920746865206c656e6465722063616e2077697468647261772066756e60008301527f64732e00000000000000000000000000000000000000000000000000000000006020830152604082019050919050565b60006107a8602183610a30565b91507f4e6f2072657061796d656e74732068617665206265656e206d6164652079657460008301527f2e000000000000000000000000000000000000000000000000000000000000006020830152604082019050919050565b600061080e601b83610a30565b91507f496e636f72726563742072657061796d656e7420616d6f756e742e00000000006000830152602082019050919050565b600061084e602683610a30565b91507f4f6e6c792074686520626f72726f7765722063616e206d616b6520726570617960008301527f6d656e74732e00000000000000000000000000000000000000000000000000006020830152604082019050919050565b6108b081610b94565b82525050565b60006020820190506108cb60008301846106b1565b92915050565b60006040820190506108e660008301856106b1565b6108f360208301846108a7565b9392505050565b600060608201905061090f60008301866106b1565b61091c60208301856108a7565b61092960408301846108a7565b949350505050565b600060208201905061094660008301846106c0565b92915050565b60006020820190508181036000830152610965816106cf565b9050919050565b6000602082019050818103600083015261098581610735565b9050919050565b600060208201905081810360008301526109a58161079b565b9050919050565b600060208201905081810360008301526109c581610801565b9050919050565b600060208201905081810360008301526109e581610841565b9050919050565b6000602082019050610a0160008301846108a7565b92915050565b6000604082019050610a1c60008301856108a7565b610a2960208301846106c0565b9392505050565b600082825260208201905092915050565b6000610a4c82610b94565b9150610a5783610b94565b9250827fffffffffffffffffffffffffffffffffffffffffffffffffffffffffffffffff03821115610a8c57610a8b610b9e565b5b828201905092915050565b6000610aa282610b94565b9150610aad83610b94565b925082610abd57610abc610bcd565b5b828204905092915050565b6000610ad382610b94565b9150610ade83610b94565b9250817fffffffffffffffffffffffffffffffffffffffffffffffffffffffffffffffff0483118215151615610b1757610b16610b9e565b5b828202905092915050565b6000610b2d82610b94565b9150610b3883610b94565b925082821015610b4b57610b4a610b9e565b5b828203905092915050565b6000610b6182610b74565b9050919050565b60008115159050919050565b600073ffffffffffffffffffffffffffffffffffffffff82169050919050565b6000819050919050565b7f4e487b7100000000000000000000000000000000000000000000000000000000600052601160045260246000fd5b7f4e487b7100000000000000000000000000000000000000000000000000000000600052601260045260246000fdfea264697066735822122069a75906213b99d1d37e8aa0a49080537ef1d1e01013d49860157a2e8d59034364736f6c63430008000033",
    "immutableReferences": {},
    "source": "// SPDX-License-Identifier: MIT\r\npragma solidity ^0.8.0;\r\n\r\ncontract RepayLoan {\r\n    address public lender;\r\n    address public borrower;\r\n    uint256 public loanAmount;\r\n    uint256 public installmentAmount;\r\n    uint256 public totalRepaymentsMade;\r\n    uint256 public repaymentSchedule;\r\n    uint256 public startTime;\r\n\r\n    bool public loanPaidOff;\r\n\r\n    event RepaymentMade(address borrower, uint256 amount, uint256 totalPaid);\r\n    event LoanPaidOff(address borrower, uint256 totalAmountPaid);\r\n\r\n    constructor(address _borrower, uint256 _loanAmount, uint256 _installmentAmount, uint256 _repaymentSchedule) {\r\n        lender = msg.sender; // lender is the contract deployer\r\n        borrower = _borrower;\r\n        loanAmount = _loanAmount;\r\n        installmentAmount = _installmentAmount;\r\n        repaymentSchedule = _repaymentSchedule; // in seconds (e.g., 30 days = 30 * 24 * 60 * 60)\r\n        startTime = block.timestamp;\r\n        loanPaidOff = false;\r\n    }\r\n\r\n    // Function to make a repayment\r\n    function makeRepayment() public payable {\r\n        require(msg.sender == borrower, \"Only the borrower can make repayments.\");\r\n        require(!loanPaidOff, \"The loan has already been paid off.\");\r\n        require(msg.value == installmentAmount, \"Incorrect repayment amount.\");\r\n\r\n        totalRepaymentsMade += msg.value;\r\n        emit RepaymentMade(borrower, msg.value, totalRepaymentsMade);\r\n\r\n        if (totalRepaymentsMade >= loanAmount) {\r\n            loanPaidOff = true;\r\n            emit LoanPaidOff(borrower, totalRepaymentsMade);\r\n        }\r\n    }\r\n\r\n    // View function to check loan status\r\n    function loanStatus() public view returns (uint256 remainingAmount, bool paidOff) {\r\n        remainingAmount = loanAmount - totalRepaymentsMade;\r\n        paidOff = loanPaidOff;\r\n    }\r\n\r\n    // Function to get next payment timestamp\r\n    function nextPaymentTime() public view returns (uint256) {\r\n        return startTime + repaymentSchedule * totalRepaymentsMade / installmentAmount;\r\n    }\r\n\r\n    // Function to withdraw funds (Only the lender can withdraw)\r\n    function withdraw() public {\r\n        require(msg.sender == lender, \"Only the lender can withdraw funds.\");\r\n        require(totalRepaymentsMade > 0, \"No repayments have been made yet.\");\r\n\r\n        payable(lender).transfer(address(this).balance);\r\n    }\r\n}\r\n",
    "sourcePath": "C:\\Users\\user\\Documents\\projects\\blocklend\\blfrontend\\contracts\\RepayLoan.sol",
    "compiler": {
        "name": "solc",
        "version": "0.8.0+commit.c7dfd78e.Emscripten.clang"
    },
    "schemaVersion": "3.4.16",
    "updatedAt": "2024-12-26T13:57:52.473Z",
    "devdoc": {
        "kind": "dev",
        "methods": {},
        "version": 1
    },
    "userdoc": {
        "kind": "user",
        "methods": {},
        "version": 1
    }
}